:020000040800F2
:1000000000000220451000088D1000088D10000827
:100010008D1000088D1000088D10000800000000F1
:100020000000000000000000000000008D1000082B
:100030008D100008000000008D1000088D100008D1
:1000400000000000000000000000000000000000B0
:1000500000000000000000000000000000000000A0
:100060000000000000000000000000000000000090
:100070000000000000000000000000000000000080
:100080000000000000000000000000000000000070
:100090000000000000000000000000000000000060
:1000A0000000000000000000000000000000000050
:1000B0000000000000000000000000000000000040
:1000C0000000000000000000000000000000000030
:1000D0000000000000000000000000000000000020
:1000E0000000000000000000000000000000000010
:1000F0000000000000000000000000000000000000
:1001000000000000000000000000000000000000EF
:1001100000000000000000000000000000000000DF
:1001200000000000000000000000000000000000CF
:1001300000000000000000000000000000000000BF
:1001400000000000000000000000000000000000AF
:10015000000000000000000000000000000000009F
:10016000000000000000000000000000000000008F
:10017000000000000000000000000000000000007F
:08018000000000000000000077
:100188000348044B834202D0034B03B1184770471E
:100198000400002004000020000000000548064B71
:1001A8001B1AD90F01EBA301491002D0034B03B16D
:1001B80018477047040000200400002000000000D9
:1001C80010B5064C237843B9FFF7DAFF044B13B197
:1001D8000448AFF300800123237010BD58020020AB
:1001E80000000000B011000808B5054B1BB1054917
:1001F8000548AFF30080BDE80840FFF7CFBF00BF58
:10020800000000005C020020B0110008F0B50001F9
:1002180001F1100614180D1D0B7814F8017B7B40B2
:1002280001F8013BA942F7D18E4200F10400F1D157
:10023800F0BDC30903EB430303EBC30383EA4000A8
:10024800C0B27047F0B501F1100203460C781C707B
:100258004C785C708C789C70CC78DC7004318A4265
:1002680003F10403F2D1114E04229707037B457B67
:10027800847BC17B08D1775D355D745CF15C06EBEE
:10028800920393F800317B4007787B4003744378EE
:100298005D40837845745C40C3788474013259406A
:1002A8002C2AC17400F10400DFD1F0BDC811000888
:1002B8002DE9F74F0C4602460020FFF7A7FF231D44
:1002C8000125009304F1100921462046002310F867
:1002D8002360324FBE5D00F823600133042BF6D152
:1002E800009B01308342F1D1607963786070607A55
:1002F8006071607B6072A07A6373A378A070A07B42
:10030800A372A379A071E07BA373E378E070E07A2D
:10031800E0730A2DE079E072E37137D091F800B00C
:100328004F788E7891F803A08BEA070086EA0A03D3
:1003380080EA03080193FFF77CFF8BEA000088EA54
:100348000000087087EA0600FFF773FF019B47402B
:1003580088EA07074F701846FFF76BFF464088EAA0
:1003680006068E708BEA0A00FFF763FF8AEA000A26
:1003780088EA0A0881F8038004318945CED12846E5
:1003880021460135FFF742FFEDB29DE72146284699
:1003980003B0BDE8F04FFFF739BF00BFC811000830
:1003A8000020704708B501460248FFF74BFF0020C0
:1003B80008BD00BF040000200246722000F082BD84
:1003C800F8B501F0F00704460D4606460744BE425C
:1003D80005D120462946FFF7EFFF0020F8BD31463A
:1003E8000248FFF765FF1036F1E700BF0400002060
:1003F80008B500F01DF800F05BF800F04DFD094A63
:1004080010216B2000F044FD074A4021702000F0C5
:100418003FFD064A0021712000F03AFD00F0ACFDD6
:10042800FCE700BFAD030008C9030008A9030008E2
:1004380030B5032293B04FF4A023CDE9062302215F
:100448004FF48003CDE90C130C20C423CDE90E032F
:1004580004240723012506A8CDE91043099500F0D7
:1004680095F8044600B1FEE70146CDE903000F23E5
:10047800059001A8CDE9013500F026FA094B009452
:100488005A6B094842F040025A635B6B03F0400321
:100498000093009B054B0360447100F087FC13B088
:1004A80030BD00BF00380240B400002000080650EC
:1004B80030B5022389B04FF4C062CDE9032301228D
:1004C800CDE90523154C1648002507230195079308
:1004D800236B13432363236B1340019303A9019BED
:1004E80000F08AFA0F48104902954FF41643C0E904
:1004F8000313C0E905550C23C56145620362636CAB
:1005080043F010036364636C03F0100302930C3030
:10051800029B00F049FB09B030BD00BF0038024023
:1005280000000240B40000200010014007B5074851
:1005380041F2883301220DF1070100F0EAFB00289F
:10054800F5D19DF8070003B05DF804FBC00000205A
:1005580007B541F288338DF8070001220DF1070134
:10056800024800F08FFB03B05DF804FBC0000020D8
:100578000268136831EA0303FBD17047024B18681D
:10058800421C1A60704700BF50010020036873B511
:10059800DE0701463BD40B689D0700F188800B6895
:1005A800180700F1D3800B685A072AD50023019356
:1005B800904B914C1A6C42F080521A641B6C03F0F9
:1005C80080530193019B236843F480732360FFF7F2
:1005D800D5FF05462368D80540F1DC808B68854C3B
:1005E800012B40F0DE80236F43F001032367FFF700
:1005F800C5FF804D044641F288362B6F9A0740F1BB
:10060800F1808A69002A40F0FD80002015E0794BCE
:100618009A6802F00C02042A07D09A6802F00C02C9
:10062800082A0CD15B685C0209D5724B1B689803D9
:10063800B1D54B68002BAED1012002B070BD4B681C
:100648006C4CB3F5803F12D1236843F480332360A8
:10065800FFF794FF674D694E04462B689A039AD4B6
:10066800FFF78CFF001BB042F7D90320E5E7B3F58D
:10067800A02F04D1236843F480232360E4E7226891
:1006880022F480322260226822F480222260002B29
:10069800DED1FFF773FF594E054623689B037FF5AC
:1006A8007AAFFFF76BFF401BB042F6D9DDE7514B3D
:1006B8009A6812F00C0F07D09A6802F00C02082A08
:1006C80016D15B68580213D44A4803689A0702D5C2
:1006D800CB68012BB0D10468F82292FAA2F20B6918
:1006E800B2FA82F2934024F0F8021343036056E70B
:1006F800CA68434BDAB101221A60FFF73FFF3D4C4D
:10070800054623689B070CD52068F82292FAA2F2C6
:100718000B69B2FA82F2934020F0F8021343236087
:100728003DE7FFF72BFF401B0228EAD99DE71A6037
:10073800FFF724FF2F4D04462B689E077FF52FAF48
:10074800FFF71CFF001B0228F6D98EE74A692C4BDD
:1007580082B10122C3F8802EFFF710FF254D044611
:100768006B6F9B073FF51FAFFFF708FF001B0228C1
:10077800F6D97AE7C3F8802EFFF700FF1D4D04462F
:100788006B6F9E077FF50FAFFFF7F8FE001B02287F
:10079800F6D96AE7FFF7F2FE401B02287FF61AAF88
:1007A80063E7052B04D1236F43F0040323671AE79B
:1007B800226F22F001022267226F22F004022267D0
:1007C800002B7FF414AFFFF7D9FE41F288360546B7
:1007D800236F9B077FF515AFFFF7D0FE401BB04294
:1007E800F6D942E7FFF7CAFE001BB0427FF605AF15
:1007F8003BE700BF003802400070004000E1F5050B
:10080800000047422D4CA36803F00C03082B3FF46B
:1008180013AF2B4B022A4FF000021A663FD1FFF7A5
:10082800ADFE284E05462368980132D447F6C072BB
:1008380092FAA2F24FF44035B2FA82F295FAA5F58F
:100848004FF07060B5FA85F590FAA0F0D1E9073657
:1008580033434E6A96408A6A5208013AAA403343A3
:100868001343CA6A174DB0FA80F08240134363609D
:10087800134B124C01221A66FFF780FE01462368CB
:100888009A013FF5C2AEFFF779FE401AA842F6D9A1
:10089800EBE6FFF773FE401BB042C4D9E5E6FFF76D
:1008A8006DFE084D014623689B017FF5AEAEFFF74C
:1008B80065FE401AA842F6D9D7E600BF00380240C4
:1008C8000000474280841E00F8B5494B1A6802F0C0
:1008D8000F028A42044611D32268950717D4D0071D
:1008E8001DD4434B1A6802F00F028A4267D8226867
:1008F80051076CD4130772D4002007E0CAB21A70EB
:100908001B6803F00F038B42E6D00120F8BD39487D
:10091800A568836823F0F0032B438360DFE76268F0
:10092800344B012A1DD11B6813F4003FEDD0314D23
:10093800AB6823F003031343AB60FFF71FFE636844
:10094800012B064641F2883715D1AB6803F00C033A
:10095800042BC6D0FFF712FE801BB842F5D903203E
:10096800D4E7901E01281B6802D813F0007FDDE74A
:1009780013F0020FDAE7022B0AD1AB6803F00C037D
:10098800082BAED0FFF7FAFD801BB842F5D9E6E791
:10099800032B0FD1AB6803F00C030C2BA1D0FFF78E
:1009A800EDFD801BB842F5D9D9E7FFF7E7FD801BBD
:1009B800B842D4D8AB6813F00C0FF6D191E7CAB29D
:1009C8001A701B6803F00F038B429ED18FE7094909
:1009D800E0688B6823F4E05303438B608AE7054A99
:1009E8002169936823F4604343EAC103936083E772
:1009F800003C0240003802402DE9F74FDFF89C81A7
:100A0800674A00234FF001090C6809FA03FA0AEA59
:100A180004053AEA040440F0AC804C6824F0100E57
:100A2800BEF1020F14D14FEAD30C00EB8C0C03F08B
:100A3800070BDCF820604FEA8B0B0F2707FA0BF740
:100A480026EA07070E6906FA0BF63E43CCF8206043
:100A5800D0F800B04FEA430C032606FA0CF72BEA4D
:100A6800070BFE4304F0030707FA0CF70EF1FF3EED
:100A780047EA0B07BEF1010F076010D8876806EA3E
:100A8800070ECF6807FA0CF747EA0E078760476832
:100A980027EA0A0E27099F4047EA0E074760C768FA
:100AA80037408E6806FA0CF63E43C660E60060D50D
:100AB80000260196D8F8446046F48046C8F8446099
:100AC800D8F8446023F0030707F1804706F480460E
:100AD80007F59C37019603F0030C019ED7F808E050
:100AE8004FEA8C0C0F2606FA0CF62EEA060E2D4E4F
:100AF800B04245D006F58066B04243D006F5806620
:100B0800B04241D006F58066B0423FD006F5806617
:100B1800B0423DD006F58066B0423BD006F580660F
:100B2800B04239D006F58066B04214BF08260726C1
:100B380006FA0CF646EA0E06BE601668EF4314F491
:100B4800803F0CBF3E402E431660566814F4003FA9
:100B58000CBF3E402E435660966814F4801F0CBFAD
:100B68003E402E439660D668A40254BF3E402E43B2
:100B7800D6600133102B7FF447AF03B0BDE8F08F88
:100B88000026D5E70126D3E70226D1E70326CFE7DB
:100B98000426CDE70526CBE70626C9E7003802403C
:100BA800003C01400000024070B50446002865D0B2
:100BB80090F8393003F0FF020BB980F8382021682B
:100BC800E2682569E069242384F83930CB6823F486
:100BD8000053CB600B6923F4405313430B61A368A4
:100BE800CA682B43656922F416422B4322F00C0293
:100BF80003431343CB604B69A26923F44073134347
:100C0800B0F5004F4B611E4A63684FF0640527D169
:100C18005B00B2FBF3F2B2FBF5F605FB1622D3003C
:100C28003233B3FBF5F303F007025B0002EB061265
:100C380003F4F87313448B600B6923F490430B613E
:100C48004B6923F02A034B61CB6843F40053CB6014
:100C580000202023E06384F8393084F83A3070BDEE
:100C68009B00B2FBF3F2B2FBF5F605FB16231B0162
:100C78003233B3FBF5F303EB0613DCE70120EEE7B1
:100C8800906EFB0A38B590F83930202B0C463ED1CF
:100C980000293AD0002A38D090F83830012B36D0C5
:100CA800012380F838300023C363212380F83930CA
:100CB8008284C284C58CADB24DB94021FFF758FC7F
:100CC800202380F8393080F83850284638BDC38C46
:100CD800013B9BB2C3848368B3F5805F4FF080010A
:100CE8000CD1FFF745FC23880268C3F3080353605F
:100CF80003690BB90234DDE70134DBE7FFF738FCA1
:100D0800036814F8012B5A60D4E70120DEE70220BB
:100D1800DCE710B590F83A30202B0C4643D1002977
:100D28003FD0002A3DD090F83830012B3BD001232A
:100D380080F838300023C363222380F83A30828554
:100D4800C285C38D9BB233B9202280F83A2080F83F
:100D58003830184610BDC38D013B9BB2C3858368EC
:100D6800B3F5805F4FF020010ED1FFF701FC036857
:100D780002695B6822B9C3F3080324F8023BE0E781
:100D8800DBB224F8013BDCE7FFF7F2FB03680269FA
:100D98005B681AB9DBB204F8013BD2E703F07F03C2
:100DA800F9E70120D6E70220D4E7704710B50446DA
:100DB800A8B10379012B14D0437903F0FF0213B9CA
:100DC8000271FFF7F2FF226802236371136843F090
:100DD80004031360002001236371207110BD0120FA
:100DE800FCE70220FAE701207047F0B500254F1C08
:100DF800854201DB002021E017F8154011F8153075
:100E0800A4F13006F6B2092E0CD81670A3F13004FE
:100E1800E4B2092C15D8137843EA0413137001358A
:100E28000132E5E7A4F14106052E02D8373C1470DB
:100E3800ECE7A4F16106052E01D90120F0BD573C6D
:100E4800F5E7A3F14104052C02D8A3F13704E2E742
:100E5800A3F16104052CF0D81478573B44EA031336
:100E6800DCE7000070B5094E34680F2C0BDCFF2955
:100E780009D806EB0415C5E90212013428712B7450
:100E88003460002070BD0120FCE700BF5401002041
:100E98000023FFF7E7BF000008B5074A00217620C6
:100EA800FFF7F6FF054A7720FFF7F2FFBDE8084095
:100EB800034A7920FFF7ECBFEF0D0008310F000857
:100EC8000D0F0008F8B514460E46FFF741FB0C4F0E
:100ED800651EC4F1010463199E4204DCBDE8F840B4
:100EE8000A20FFF735BB15F8013F1B09F85CFFF72F
:100EF8002FFB2B7803F00F03F85CFFF729FBEAE7D9
:100F0800D317000807B5074B0DF107021B688DF8CA
:100F1800073001217220FFF7D5FF002003B05DF8EC
:100F280004FB00BF5401002070B5124C21688CB03E
:100F3800CDB20020C3B2AB4200F1010009DB01EBE6
:100F480041016A46C9B27220FFF7BCFF00200CB00D
:100F580070BD03EB4302303204EB03136A441E797D
:100F680002F8306C9E681B7C02F82F6C02F82E3C4D
:100F7800E0E700BF540100202DE9F0432E4CADF509
:100F8800437DFFF7D3FA2246002352F8041B994207
:100F980041DC3CD004EB03151F012B7C13F0010F3F
:100FA80042AE13D000238DF80830FFF7BFFA307037
:100FB800FFF7BCFA0DF1080870704246314601206F
:100FC800FFF713FF18BB9DF80830AB60B04600254B
:100FD80004EB0709D9F80830B5EB430F21D3FFF725
:100FE800A5FA0A2801D00D2811D13C4402AAA56807
:100FF80031462846FFF7F9FE48B9E9B2E36802A886
:10100800984701AA012110707A20FFF75BFF0DF5C0
:10101800437DBDE8F0831D01AD5C8542BAD0013344
:10102800B5E7FFF783FA0A28F1D00D28EFD008F8C2
:10103800010B0135CEE700BF54010020002103E079
:101048000B4B5B58435004310A480B4B42189A42E9
:10105800F6D30A4A02E0002313600432084B9A428E
:10106800F9D3AFF3008000F00FF8FFF7C1F9FEE7FE
:10107800F0170008000000200400002004000020F1
:101088000C040020FEE7000070B50F4B0F4DAB427B
:10109800A3EB050607D0B610002455F8043B01342D
:1010A8009847A642F9D800F07FF8094D094B5E1B16
:1010B800AB424FEAA60606D0002455F8043B01349B
:1010C8009847A642F9D870BDE4170008E41700084D
:1010D800E4170008EC170008704700BF704700BF0E
:1010E800024B13B1024800F005B870470000000039
:1010F80009110008002301461A46184600F014B8E2
:1011080038B5074D074C2C1BA41005D0013C55F8E9
:10111800043D9847002CF9D1BDE8384000F04AB8A2
:10112800F0170008EC1700082DE9F8431B4D064698
:10113800286898460F469146FFF7CEFF184B1C6863
:101148001CB3286865681F2D22DC4EB96B1C02355C
:10115800636044F82570FFF7C1FF0020BDE8F883FD
:1011680004EB85010123C1F88890D4F88821AB40AD
:101178001A43022EC4F88821C1F80881E6D1D4F8B0
:101188008C211A43C4F88C21E0E7064C1C60D8E790
:10119800FFF7A4FF4FF0FF30E0E700BF000000209A
:1011A800780200207C020020F8B500BFF8BC08BC1B
:1011B8009E467047F8B500BFF8BC08BC9E4670470D
:1011C800637C777BF26B6FC53001672BFED7AB76FC
:1011D800CA82C97DFA5947F0ADD4A2AF9CA472C0A7
:1011E800B7FD9326363FF7CC34A5E5F171D8311514
:1011F80004C723C31896059A071280E2EB27B27535
:1012080009832C1A1B6E5AA0523BD6B329E32F84AC
:1012180053D100ED20FCB15B6ACBBE394A4C58CFA4
:10122800D0EFAAFB434D338545F9027F503C9FA878
:1012380051A3408F929D38F5BCB6DA2110FFF3D246
:10124800CD0C13EC5F974417C4A77E3D645D1973FA
:1012580060814FDC222A908846EEB814DE5E0BDBF4
:10126800E0323A0A4906245CC2D3AC629195E4792B
:10127800E7C8376D8DD54EA96C56F4EA657AAE0885
:10128800BA78252E1CA6B4C6E8DD741F4BBD8B8A20
:10129800703EB5664803F60E613557B986C11D9E86
:1012A800E1F8981169D98E949B1E87E9CE5528DFFD
:1012B8008CA1890DBFE6426841992D0FB054BB1629
:1012C8008D01020408102040801B3652096AD5306F
:1012D80036A538BF40A39E81F3D7FB7CE339829BB8
:1012E8002FFF87348E4344C4DEE9CB547B9432A667
:1012F800C2233DEE4C950B42FAC34E082EA1662838
:10130800D924B2765BA2496D8BD12572F8F6648632
:10131800689816D4A45CCC5D65B6926C704850FD94
:10132800EDB9DA5E154657A78D9D8490D8AB008C31
:10133800BCD30AF7E45805B8B34506D02C1E8FCAAB
:101348003F0F02C1AFBD0301138A6B3A9111414FA0
:1013580067DCEA97F2CFCEF0B4E67396AC7422E776
:10136800AD3585E2F937E81C75DF6E47F11A711D56
:1013780029C5896FB7620EAA18BE1BFC563E4BC61C
:10138800D279209ADBC0FE78CD5AF41FDDA83388C5
:1013980007C731B11210592780EC5F60517FA91936
:1013A800B54A0D2DE57A9F93C99CEFA0E03B4DAE61
:1013B8002AF5B0C8EBBB3C83539961172B047EBA5E
:1013C80077D626E169146355210C7D000E1C12386E
:1013D80036242A707E6C624846545AE0EEFCF2D8F5
:1013E800D6C4CA909E8C82A8A6B4BADBD5C7C9E376
:1013F800EDFFF1ABA5B7B9939D8F813B3527290345
:101408000D1F114B455759737D6F61ADA3B1BF9542
:101418009B8987DDD3C1CFE5EBF9F74D43515F7564
:101428007B69673D33212F050B191776786A644E5F
:1014380040525C06081A143E30222C96988A84AED4
:10144800A0B2BCE6E8FAF4DED0C2CC414F5D5379D5
:1014580077656B313F2D230907151BA1AFBDB399E4
:1014680097858BD1DFCDC3E9E7F5FB9A948688A2EF
:10147800ACBEB0EAE4F6F8D2DCCEC07A7466684254
:101488004C5E500A041618323C2E20ECE2F0FED4D2
:10149800DAC8C69C92808EA4AAB8B60C02101E3474
:1014A8003A28267C72606E444A585637392B250FE5
:1014B80001131D47495B557F71636DD7D9CBC5EFC4
:1014C800E1F3FDA7A9BBB59F91838D000D1A1734D1
:1014D800392E236865727F5C51464BD0DDCAC7E45C
:1014E800E9FEF3B8B5A2AF8C81969BBBB6A1AC8FD1
:1014F800829598D3DEC9C4E7EAFDF06B66717C5F1C
:10150800524548030E1914373A2D206D60777A59E1
:1015180054434E05081F12313C2B26BDB0A7AA899B
:1015280084939ED5D8CFC2E1ECFBF6D6DBCCC1E2E2
:10153800EFF8F5BEB3A4A98A87909D060B1C11325B
:101548003F28256E6374795A57404DDAD7C0CDEEDF
:10155800E3F4F9B2BFA8A5868B9C910A07101D3E3B
:10156800332429626F7875565B4C41616C7B7655E4
:10157800584F420904131E3D30272AB1BCABA6853B
:10158800889F92D9D4C3CEEDE0F7FAB7BAADA0835D
:101598008E9994DFD2C5C8EBE6F1FC676A7D70537B
:1015A8005E49440F0215183B36212C0C01161B38D6
:1015B80035222F64697E73505D4A47DCD1C6CBE87B
:1015C800E5F2FFB4B9AEA3808D9A97000B161D2CD7
:1015D800273A3158534E45747F6269B0BBA6AD9C1B
:1015E800978A81E8E3FEF5C4CFD2D97B706D665740
:1015F8005C414A2328353E0F041912CBC0DDD6E7DB
:10160800ECF1FA9398858EBFB4A9A2F6FDE0EBDA67
:10161800D1CCC7AEA5B8B38289949F464D505B6ABA
:10162800617C771E1508033239242F8D869B90A183
:10163800AAB7BCD5DEC3C8F9F2EFE43D362B2011BA
:101648001A070C656E737849425F54F7FCE1EADBD0
:10165800D0CDC6AFA4B9B28388959E474C515A6B7A
:10166800607D761F1409023338252E8C879A91A045
:10167800ABB6BDD4DFC2C9F8F3EEE53C372A21107A
:101688001B060D646F727948435E55010A171C2DBD
:10169800263B3059524F44757E6368B1BAA7AC9D5A
:1016A800968B80E9E2FFF4C5CED3D87A716C675681
:1016B8005D404B2229343F0E051813CAC1DCD7E61A
:1016C800EDF0FB9299848FBEB5A8A30009121B24E4
:1016D8002D363F48415A536C657E779099828BB47A
:1016E800BDA6AFD8D1CAC3FCF5EEE73B3229201F0F
:1016F800160D04737A6168575E454CABA2B9B08F7A
:10170800869D94E3EAF1F8C7CED5DC767F646D5206
:101718005B40493E372C251A130801E6EFF4FDC259
:10172800CBD0D9AEA7BCB58A8398914D445F566992
:10173800607B72050C171E2128333ADDD4CFC6F919
:10174800F0EBE2959C878EB1B8A3AAECE5FEF7C84A
:10175800C1DAD3A4ADB6BF8089929B7C756E6758F9
:10176800514A43343D262F1019020BD7DEC5CCF35E
:10177800FAE1E89F968D84BBB2A9A0474E555C63F9
:101788006A71780F061D142B2239309A938881BE0E
:10179800B7ACA5D2DBC0C9F6FFE4ED0A0318112ED9
:1017A800273C35424B5059666F747DA1A8B3BA8562
:1017B8008C979EE9E0FBF2CDC4DFD63138232A1599
:1017C8001C070E79706B625D544F463031323334EA
:0C17D8003536373839414243444546005D
:0817E400E9100008F101000802
:0417EC00C901000827
:0417F000740200205F
:04000005080010459A
:00000001FF
