:020000040800F2
:1000000000000220C9130008111400081114000890
:100010001114000811140008111400080000000059
:1000200000000000000000000000000011140008A3
:100030001114000800000000111400081114000839
:1000400000000000000000000000000000000000B0
:1000500000000000000000000000000000000000A0
:100060000000000000000000000000000000000090
:100070000000000000000000000000000000000080
:100080000000000000000000000000000000000070
:100090000000000000000000000000000000000060
:1000A0000000000000000000000000000000000050
:1000B0000000000000000000000000000000000040
:1000C0000000000000000000000000000000000030
:1000D0000000000000000000000000000000000020
:1000E0000000000000000000000000000000000010
:1000F0000000000000000000000000000000000000
:1001000000000000000000000000000000000000EF
:1001100000000000000000000000000000000000DF
:1001200000000000000000000000000000000000CF
:1001300000000000000000000000000000000000BF
:1001400000000000000000000000000000000000AF
:10015000000000000000000000000000000000009F
:10016000000000000000000000000000000000008F
:10017000000000000000000000000000000000007F
:08018000000000000000000077
:10018800844641EA000313F003036DD1403A41D39A
:1001980051F8043B40F8043B51F8043B40F8043B59
:1001A80051F8043B40F8043B51F8043B40F8043B49
:1001B80051F8043B40F8043B51F8043B40F8043B39
:1001C80051F8043B40F8043B51F8043B40F8043B29
:1001D80051F8043B40F8043B51F8043B40F8043B19
:1001E80051F8043B40F8043B51F8043B40F8043B09
:1001F80051F8043B40F8043B51F8043B40F8043BF9
:1002080051F8043B40F8043B51F8043B40F8043BE8
:10021800403ABDD2303211D351F8043B40F8043B88
:1002280051F8043B40F8043B51F8043B40F8043BC8
:1002380051F8043B40F8043B103AEDD20C3205D398
:1002480051F8043B40F8043B043AF9D2043208D090
:10025800D2071CBF11F8013B00F8013B01D30B8802
:1002680003806046704700BF082A13D38B078DD0E0
:1002780010F003038AD0C3F10403D21ADB071CBFB2
:1002880011F8013B00F8013B80D331F8023B20F81C
:10029800023B7BE7043AD9D3013A11F8013B00F855
:1002A800013BF9D20B7803704B7843708B788370DD
:1002B800604670470348044B834202D0034B03B1A6
:1002C80018477047040000200400002000000000C8
:1002D8000548064B1B1AD90F01EBA301491002D0A0
:1002E800034B03B1184770470400002004000020A6
:1002F8000000000010B5064C237843B9FFF7DAFF79
:10030800044B13B10448AFF300800123237010BDE0
:10031800A801002000000000D015000808B5054B12
:100328001BB105490548AFF30080BDE80840FFF759
:10033800CFBF00BF00000000AC010020D0150008AE
:100348000020704730B591B004460D464022002188
:10035800684601F05BF840236A462946204600F0CB
:1003680014FA6A464021722000F06EFF002011B096
:1003780030BD000008B500F01DFA00F05BFA00F08F
:100388004DFF064A4021702000F044FF044A002136
:10039800712000F03FFF00F0B1FFFCE74D030008BB
:1003A8004903000810B5034600F108020020014681
:1003B80012F8014D0902934241EA106144EA002013
:1003C800F6D110BD03785AB2002AB8BF52000146D0
:1003D800B8BF82F0710203F00100AABF5B00D3B27C
:1003E800DBB20B7070472DE9F04F91B018234FF036
:1003F800010A009300F1280306468DF817A001931F
:1004080006AF35462846FFF7CDFF804605F12800A0
:100418000C46FFF7C7FF88EA000805F150004C407A
:10042800FFF7C0FF88EA000805F178004C40FFF7A5
:10043800B9FF88EA000805F1A0004C40FFF7B2FFB9
:10044800019B083588EA00004C40AB42C7E900042C
:1004580007F10807D6D106F1C80500244FF00508B2
:10046800231DB3FBF8F202EB82029B1A10AA02EBDF
:10047800C3030134B4FBF8F202EB820253E90A70B9
:10048800A21A10AB03EBC20252E90A23510041EA57
:10049800D3715B0043EAD27379404340A5F1C802A7
:1004A800174608469C4602F1080997F800E08EEACC
:1004B800000E07F801EB000AB94540EA0C604FEA64
:1004C8001C2CF2D128329542EAD1052C05F10805F9
:1004D800C6D106F10800FFF765FF4FF00009864610
:1004E8004D464FF0010B029405EB450202EB4B021F
:1004F800029BCDF80C90AB46B2FBF3F505EB8505F6
:10050800551B05EB8508D84406EBC80840467446D9
:100518000F46FFF747FF039B09F10109023309FB67
:1005280003F3C3F34503A3F1200C07FA03F204FA1B
:100538000CFC8646C3F1200024FA00F042EA0C02C3
:10054800024304FA03F05B4203F03F03C3F1200CBB
:100558000390DC40A3F1200007FA0CFC27FA00F016
:1005680044EA0C04DF40039B04431C43174308F18F
:10057800FF3308F1070803F8014F240A984544EAB5
:1005880007644FEA1727F6D1B9F1180FACD1002547
:100598004FF0050806F1080906ACEF0006EBC502A6
:1005A80023464FF0000B02EB0B0003930292FFF778
:1005B800F9FE0BF1080B039B029ABBF1280FE3E845
:1005C8000201F0D100210A460131B1FBF8F303EB37
:1005D80083030DF1400ECB1A0EEBC30353E90ABE99
:1005E8000232B2FBF8F303EB8303D21A10AB03EB2E
:1005F800C20252E90A32D4E900C023EA0B0322EA14
:100608000E0283EA0C0342400834F01909EB070C88
:1006180000F8013B1B0A844543EA02634FEA1222B1
:10062800F6D1052907F10807CDD10535192DB3D124
:100638000024F51D0DF11700FFF7C4FED0B10AFA2A
:1006480004F14A1EA1F12103C1F121012AFA01F1A5
:100658000AFA03F30B430AFA02F2711E11F8010FAA
:1006680050408D424FEA122242EA036208704FEA74
:100678001323F3D10134072CDCD1009B013B0093F9
:100688007FF4BEAE11B0BDE8F08F2DE9F04F014404
:10069800B3B0B1F5C86FDDE93C6ADDE940789DF893
:1006A800F89015466ED110F0070B6BD1C408C8221C
:1006B8005946684600F0AAFE002156EA0A0340D1CE
:1006C80001F1C8030DEB030219F0800F12F8C83CC2
:1006D80089EA030302F8C83C04F1FF3504D08D42CF
:1006E80002D16846FFF77FFE05F1C8030DEB03054D
:1006F800684615F8C83C83F0800305F8C83CFFF746
:1007080072FE57EA08033DD0A74278F10003254658
:1007180038BF3D462A463F9869464FF0000638BF25
:100728004646FFF72DFD3F9B2B447D1B68EB0608D3
:100738003F9355EA08032F4624D06846FFF753FE37
:10074800E2E7A6427AF10002234638BF33464FF06B
:10075800000C194638BFD4466A4605EB030E7545AA
:1007680008D1F61A6AEB0C0A9C42A6D16846FFF734
:100778003AFEA1E7107815F801BB80EA0B0002F8F1
:10078800010BECE733B0BDE8F08F10B5DC1786B08D
:10079800CDE904341F2302930023039200910246FB
:1007A80001934FF480714FF4A860FFF76EFF06B015
:1007B80010BD000030B5032293B04FF4A023CDE95B
:1007C800062302214FF48003CDE90C130C20C42327
:1007D800CDE90E0304240723012506A8CDE910431B
:1007E800099500F095F8044600B1FEE70146CDE909
:1007F80003000F23059001A8CDE9013500F026FA82
:10080800094B00945A6B094842F040025A635B6BEB
:1008180003F040030093009B054B0360447100F014
:1008280087FC13B030BD00BF003802400400002030
:100838000008065030B5022389B04FF4C062CDE9F4
:1008480003230122CDE90523154C1648002507236B
:1008580001950793236B13432363236B1340019381
:1008680003A9019B00F08AFA0F48104902954FF43A
:100878001643C0E90313C0E905550C23C561456259
:100888000362636C43F010036364636C03F010034A
:1008980002930C30029B00F049FB09B030BD00BF49
:1008A800003802400000024004000020001001400F
:1008B80007B5074841F2883301220DF1070100F01E
:1008C800EAFB0028F5D19DF8070003B05DF804FBAA
:1008D8001000002007B541F288338DF80700012287
:1008E8000DF10701024800F08FFB03B05DF804FB2F
:1008F800100000200268136831EA0303FBD1704737
:10090800024B1868421C1A60704700BFA000002004
:10091800036873B5DE0701463BD40B689D0700F1F9
:1009280088800B68180700F1D3800B685A072AD50E
:1009380000230193904B914C1A6C42F080521A6438
:100948001B6C03F080530193019B236843F480736D
:100958002360FFF7D5FF05462368D80540F1DC8002
:100968008B68854C012B40F0DE80236F43F0010338
:100978002367FFF7C5FF804D044641F288362B6F89
:100988009A0740F1F1808A69002A40F0FD80002032
:1009980015E0794B9A6802F00C02042A07D09A688D
:1009A80002F00C02082A0CD15B685C0209D5724B74
:1009B8001B689803B1D54B68002BAED1012002B05B
:1009C80070BD4B686C4CB3F5803F12D1236843F47B
:1009D80080332360FFF794FF674D694E04462B6808
:1009E8009A039AD4FFF78CFF001BB042F7D9032073
:1009F800E5E7B3F5A02F04D1236843F480232360EF
:100A0800E4E7226822F480322260226822F48022FD
:100A18002260002BDED1FFF773FF594E054623688D
:100A28009B037FF57AAFFFF76BFF401BB042F6D907
:100A3800DDE7514B9A6812F00C0F07D09A6802F064
:100A48000C02082A16D15B68580213D44A48036876
:100A58009A0702D5CB68012BB0D10468F82292FA24
:100A6800A2F20B69B2FA82F2934024F0F80213431F
:100A7800036056E7CA68434BDAB101221A60FFF7F0
:100A88003FFF3D4C054623689B070CD52068F8229C
:100A980092FAA2F20B69B2FA82F2934020F0F802BD
:100AA800134323603DE7FFF72BFF401B0228EAD9D9
:100AB8009DE71A60FFF724FF2F4D04462B689E0719
:100AC8007FF52FAFFFF71CFF001B0228F6D98EE732
:100AD8004A692C4B82B10122C3F8802EFFF710FF20
:100AE800254D04466B6F9B073FF51FAFFFF708FFC7
:100AF800001B0228F6D97AE7C3F8802EFFF700FF1B
:100B08001D4D04466B6F9E077FF50FAFFFF7F8FE8C
:100B1800001B0228F6D96AE7FFF7F2FE401B0228FD
:100B28007FF61AAF63E7052B04D1236F43F0040364
:100B380023671AE7226F22F001022267226F22F050
:100B480004022267002B7FF414AFFFF7D9FE41F2AD
:100B580088360546236F9B077FF515AFFFF7D0FE54
:100B6800401BB042F6D942E7FFF7CAFE001BB0426D
:100B78007FF605AF3BE700BF003802400070004039
:100B880000E1F505000047422D4CA36803F00C0373
:100B9800082B3FF413AF2B4B022A4FF000021A66C2
:100BA8003FD1FFF7ADFE284E05462368980132D4A1
:100BB80047F6C07292FAA2F24FF44035B2FA82F2C6
:100BC80095FAA5F54FF07060B5FA85F590FAA0F0A2
:100BD800D1E9073633434E6A96408A6A5208013A89
:100BE800AA4033431343CA6A174DB0FA80F08240D3
:100BF80013436360134B124C01221A66FFF780FE01
:100C0800014623689A013FF5C2AEFFF779FE401A04
:100C1800A842F6D9EBE6FFF773FE401BB042C4D9F1
:100C2800E5E6FFF76DFE084D014623689B017FF559
:100C3800AEAEFFF765FE401AA842F6D9D7E600BF68
:100C4800003802400000474280841E00F8B5494B36
:100C58001A6802F00F028A42044611D322689507E7
:100C680017D4D0071DD4434B1A6802F00F028A42EA
:100C780067D8226851076CD4130772D4002007E0A4
:100C8800CAB21A701B6803F00F038B42E6D001202A
:100C9800F8BD3948A568836823F0F0032B438360C7
:100CA800DFE76268344B012A1DD11B6813F4003F4B
:100CB800EDD0314DAB6823F003031343AB60FFF76E
:100CC8001FFE6368012B064641F2883715D1AB68D1
:100CD80003F00C03042BC6D0FFF712FE801BB842AA
:100CE800F5D90320D4E7901E01281B6802D813F019
:100CF800007FDDE713F0020FDAE7022B0AD1AB68B9
:100D080003F00C03082BAED0FFF7FAFD801BB842A6
:100D1800F5D9E6E7032B0FD1AB6803F00C030C2BD6
:100D2800A1D0FFF7EDFD801BB842F5D9D9E7FFF751
:100D3800E7FD801BB842D4D8AB6813F00C0FF6D18E
:100D480091E7CAB21A701B6803F00F038B429ED159
:100D58008FE70949E0688B6823F4E05303438B600D
:100D68008AE7054A2169936823F4604343EAC1038B
:100D7800936083E7003C0240003802402DE9F74FBA
:100D8800DFF89C81674A00234FF001090C6809FAD3
:100D980003FA0AEA04053AEA040440F0AC804C6815
:100DA80024F0100EBEF1020F14D14FEAD30C00EB61
:100DB8008C0C03F0070BDCF820604FEA8B0B0F2735
:100DC80007FA0BF726EA07070E6906FA0BF63E4301
:100DD800CCF82060D0F800B04FEA430C032606FA9E
:100DE8000CF72BEA070BFE4304F0030707FA0CF78E
:100DF8000EF1FF3E47EA0B07BEF1010F076010D85E
:100E0800876806EA070ECF6807FA0CF747EA0E0765
:100E18008760476827EA0A0E27099F4047EA0E07B6
:100E28004760C76837408E6806FA0CF63E43C660CE
:100E3800E60060D500260196D8F8446046F480465E
:100E4800C8F84460D8F8446023F0030707F18047E6
:100E580006F4804607F59C37019603F0030C019EC3
:100E6800D7F808E04FEA8C0C0F2606FA0CF62EEAA3
:100E7800060E2D4EB04245D006F58066B04243D0EE
:100E880006F58066B04241D006F58066B0423FD094
:100E980006F58066B0423DD006F58066B0423BD08C
:100EA80006F58066B04239D006F58066B04214BFB8
:100EB8000826072606FA0CF646EA0E06BE601668ED
:100EC800EF4314F4803F0CBF3E402E431660566833
:100ED80014F4003F0CBF3E402E435660966814F44D
:100EE800801F0CBF3E402E439660D668A40254BFB4
:100EF8003E402E43D6600133102B7FF447AF03B03A
:100F0800BDE8F08F0026D5E70126D3E70226D1E712
:100F18000326CFE70426CDE70526CBE70626C9E753
:100F280000380240003C01400000024070B5044611
:100F3800002865D090F8393003F0FF020BB980F82B
:100F480038202168E2682569E069242384F839306B
:100F5800CB6823F40053CB600B6923F4405313434D
:100F68000B61A368CA682B43656922F416422B43B8
:100F780022F00C0203431343CB604B69A26923F4AC
:100F880040731343B0F5004F4B611E4A63684FF03E
:100F9800640527D15B00B2FBF3F2B2FBF5F605FB63
:100FA8001622D3003233B3FBF5F303F007025B00DC
:100FB80002EB061203F4F87313448B600B6923F4F5
:100FC80090430B614B6923F02A034B61CB6843F4D0
:100FD8000053CB6000202023E06384F8393084F884
:100FE8003A3070BD9B00B2FBF3F2B2FBF5F605FB9D
:100FF80016231B013233B3FBF5F303EB0613DCE7CF
:101008000120EEE7906EFB0A38B590F83930202BB6
:101018000C463ED100293AD0002A38D090F8383012
:10102800012B36D0012380F838300023C3632123F5
:1010380080F839308284C284C58CADB24DB9402164
:10104800FFF758FC202380F8393080F838502846BC
:1010580038BDC38C013B9BB2C3848368B3F5805F02
:101068004FF080010CD1FFF745FC23880268C3F3D9
:101078000803536003690BB90234DDE70134DBE789
:10108800FFF738FC036814F8012B5A60D4E70120F5
:10109800DEE70220DCE710B590F83A30202B0C464A
:1010A80043D100293FD0002A3DD090F83830012B99
:1010B8003BD0012380F838300023C363222380F813
:1010C8003A308285C285C38D9BB233B9202280F81D
:1010D8003A2080F83830184610BDC38D013B9BB2CA
:1010E800C3858368B3F5805F4FF020010ED1FFF709
:1010F80001FC036802695B6822B9C3F3080324F89A
:10110800023BE0E7DBB224F8013BDCE7FFF7F2FB48
:10111800036802695B681AB9DBB204F8013BD2E7DD
:1011280003F07F03F9E70120D6E70220D4E77047F0
:1011380010B50446A8B10379012B14D0437903F004
:10114800FF0213B90271FFF7F2FF226802236371ED
:10115800136843F0040313600020012363712071B6
:1011680010BD0120FCE70220FAE701207047F0B526
:1011780000254F1C854201DB002021E017F81540AF
:1011880011F81530A4F13006F6B2092E0CD81670F5
:10119800A3F13004E4B2092C15D8137843EA0413F8
:1011A800137001350132E5E7A4F14106052E02D896
:1011B800373C1470ECE7A4F16106052E01D9012033
:1011C800F0BD573CF5E7A3F14104052C02D8A3F183
:1011D8003704E2E7A3F16104052CF0D81478573BF3
:1011E80044EA0313DCE7000070B5094E34680F2C9D
:1011F8000BDCFF2909D806EB0415C5E902120134F6
:1012080028712B743460002070BD0120FCE700BFFA
:10121800A40000200023FFF7E7BF000008B5074A35
:1012280000217620FFF7F6FF054A7720FFF7F2FF47
:10123800BDE80840034A7920FFF7ECBF73110008A6
:10124800B512000891120008F8B514460E46FFF7CB
:1012580041FB0C4F651EC4F1010463199E4204DC76
:10126800BDE8F8400A20FFF735BB15F8013F1B0918
:10127800F85CFFF72FFB2B7803F00F03F85CFFF700
:1012880029FBEAE7E815000807B5074B0DF1070247
:101298001B688DF8073001217220FFF7D5FF002069
:1012A80003B05DF804FB00BFA400002070B5124C29
:1012B80021688CB0CDB20020C3B2AB4200F101006E
:1012C80009DB01EB41016A46C9B27220FFF7BCFF96
:1012D80000200CB070BD03EB4302303204EB031363
:1012E8006A441E7902F8306C9E681B7C02F82F6CE9
:1012F80002F82E3CE0E700BFA40000202DE9F043EF
:101308002E4CADF5437DFFF7D3FA2246002352F861
:10131800041B994241DC3CD004EB03151F012B7CD4
:1013280013F0010F42AE13D000238DF80830FFF7F9
:10133800BFFA3070FFF7BCFA0DF10808707042462A
:1013480031460120FFF713FF18BB9DF80830AB604A
:10135800B046002504EB0709D9F80830B5EB430F70
:1013680021D3FFF7A5FA0A2801D00D2811D13C4452
:1013780002AAA56831462846FFF7F9FE48B9E9B23E
:10138800E36802A8984701AA012110707A20FFF7A4
:101398005BFF0DF5437DBDE8F0831D01AD5C854223
:1013A800BAD00133B5E7FFF783FA0A28F1D00D2840
:1013B800EFD008F8010B0135CEE700BFA4000020EC
:1013C800002103E00B4B5B58435004310A480B4B98
:1013D80042189A42F6D30A4A02E000231360043204
:1013E800084B9A42F9D3AFF3008000F05DF8FEF79E
:1013F800C1FFFEE70C1600080000002004000020D2
:10140800040000205C030020FEE70000830730B5DD
:1014180046D08418844604E003F8011B9D0704D0D5
:101428009C46A4456346F7D130BD013A0244A2EB7D
:101438000C02032A29D9CCB204EB04240F2A04EBAA
:1014480004442FD9A2F1100C2CF00F0C03F1100555
:10145800AC44C3E90044C3E9024410336345F8D1FE
:1014680012F00C0F02F00F0E18D02EF0030C9C4453
:10147800AEF104051A4642F8044B6245FBD125F04B
:10148800030404330EF003022344002ACCD0C9B26B
:101498001A4403F8011B9342FBD130BD7246F4E7AE
:1014A8000346C6E79646E0E770B50F4B0F4DAB42D3
:1014B800A3EB050607D0B610002455F8043B013409
:1014C8009847A642F9D800F07FF8094D094B5E1BF2
:1014D800AB424FEAA60606D0002455F8043B013477
:1014E8009847A642F9D870BD0016000800160008F3
:1014F8000016000808160008704700BF704700BFB4
:10150800024B13B1024800F005B870470000000014
:1015180029150008002301461A46184600F014B899
:1015280038B5074D074C2C1BA41005D0013C55F8C5
:10153800043D9847002CF9D1BDE8384000F04AB87E
:101548000C160008081600082DE9F8431B4D06463E
:10155800286898460F469146FFF7CEFF184B1C683F
:101568001CB3286865681F2D22DC4EB96B1C023538
:10157800636044F82570FFF7C1FF0020BDE8F883D9
:1015880004EB85010123C1F88890D4F88821AB4089
:101598001A43022EC4F88821C1F80881E6D1D4F88C
:1015A8008C211A43C4F88C21E0E7064C1C60D8E76C
:1015B800FFF7A4FF4FF0FF30E0E700BF0000002076
:1015C800C8010020CC010020F8B500BFF8BC08BC59
:1015D8009E467047F8B500BFF8BC08BC9E467047E9
:1015E8003031323334353637383941424344454651
:0815F80090EBFF7F01000000F1
:0816000009150008250300088C
:04160800FD020008D7
:04160C00C4010020F5
:04000005080013C913
:00000001FF
